S00B00004C43442E7372656346
S11300000C942A000C943F000C943F000C943F0085
S11300100C943F000C943F000C943F000C943F0060
S11300200C943F000C943F000C943F000C943F0050
S11300300C943F000C943F000C943F000C943F0040
S11300400C943F000C943F000C943F000C943F0030
S11300500C943F0011241FBECFE5D8E0DEBFCDBF16
S113006010E0A0E6B0E0EEE9F1E002C005900D92E8
S1130070A636B107D9F70E94C3000C94CD000C94A6
S113008000009BB39F70282F207F922B9BBBC198AD
S1130090C39A35E33A95F1F70000C398EFE3FFE123
S11300A03197F1F700C000002BB32F70F0E18F9F60
S11300B0C0011124822B8BBBC39A35E33A95F1F727
S11300C00000C3988FE39CE90197F1F700C000009A
S11300D008958AB3806F8ABB87B38E6087BBC2984A
S11300E02FEF89EF90E0215080409040E1F700C06D
S11300F0000083E30E94410082E30E94410088E201
S11301000E9441008CE00E94410086E00E94410070
S113011081E00E94410008959BB39F70282F207FA7
S1130120922B9BBBC19AC39A35E33A95F1F7000031
S1130130C398EFE3FFE13197F1F700C000002BB360
S11301402F70F0E18F9FC0011124822B8BBBC39AC7
S113015035E33A95F1F70000C3988FE39CE90197E2
S1130160F1F700C000000895CF93DF93EC0188817C
S1130170882331F021960E948C0089918111FBCF54
S1130180DF91CF9108950E94690080E80E944100A8
S111019080E690E00E94B400FFCFF894FFCF09
S109019E7368656C6C003F
S9030000FC
